{
  "address": "0x5FbDB2315678afecb367f032d93F642f64180aa3",
  "abi": [
    {
      "anonymous": false,
      "inputs": [
        {
          "indexed": true,
          "internalType": "string",
          "name": "url",
          "type": "string"
        }
      ],
      "name": "Added",
      "type": "event"
    },
    {
      "inputs": [
        {
          "internalType": "address",
          "name": "_user",
          "type": "address"
        },
        {
          "internalType": "string",
          "name": "url",
          "type": "string"
        }
      ],
      "name": "add",
      "outputs": [],
      "stateMutability": "nonpayable",
      "type": "function"
    },
    {
      "inputs": [
        {
          "internalType": "address",
          "name": "user",
          "type": "address"
        }
      ],
      "name": "allow",
      "outputs": [],
      "stateMutability": "nonpayable",
      "type": "function"
    },
    {
      "inputs": [
        {
          "internalType": "address",
          "name": "user",
          "type": "address"
        }
      ],
      "name": "disallow",
      "outputs": [],
      "stateMutability": "nonpayable",
      "type": "function"
    },
    {
      "inputs": [
        {
          "internalType": "address",
          "name": "_user",
          "type": "address"
        }
      ],
      "name": "display",
      "outputs": [
        {
          "internalType": "string[]",
          "name": "",
          "type": "string[]"
        }
      ],
      "stateMutability": "view",
      "type": "function"
    },
    {
      "inputs": [
        {
          "internalType": "address",
          "name": "user",
          "type": "address"
        }
      ],
      "name": "shareAccess",
      "outputs": [
        {
          "components": [
            {
              "internalType": "address",
              "name": "user",
              "type": "address"
            },
            {
              "internalType": "bool",
              "name": "access",
              "type": "bool"
            }
          ],
          "internalType": "struct Upload.Access[]",
          "name": "",
          "type": "tuple[]"
        }
      ],
      "stateMutability": "view",
      "type": "function"
    }
  ],
  "transactionHash": "0x40c3b4bb5eee100a0b2d2dc489c60148568f40e12029130fa2d657fc3470863b",
  "args": [],
  "numDeployments": 1,
  "solcInputHash": "28c56ee099c64910b6d1e4ff9e0b800d",
  "bytecode": "0x608060405234801561001057600080fd5b506114b2806100206000396000f3fe608060405234801561001057600080fd5b50600436106100575760003560e01c806336d6da551461005c578063a9ed9cb814610078578063d4f3753014610094578063eb39113f146100c4578063ff9913e8146100f4575b600080fd5b61007660048036038101906100719190610d08565b610110565b005b610092600480360381019061008d9190610d64565b6101c7565b005b6100ae60048036038101906100a99190610d64565b6103e9565b6040516100bb9190610e99565b60405180910390f35b6100de60048036038101906100d99190610d64565b6104f4565b6040516100eb9190610ffc565b60405180910390f35b61010e60048036038101906101099190610d64565b61070a565b005b6000808373ffffffffffffffffffffffffffffffffffffffff1673ffffffffffffffffffffffffffffffffffffffff168152602001908152602001600020819080600181540180825580915050600190039060005260206000200160009091909190915090816101809190611234565b508060405161018f9190611342565b60405180910390207f844e4fccb87d6d1843733397bf5d41ce3551716260f6e90263dbbed3bda32f4f60405160405180910390a25050565b6000600160003373ffffffffffffffffffffffffffffffffffffffff1673ffffffffffffffffffffffffffffffffffffffff16815260200190815260200160002060008373ffffffffffffffffffffffffffffffffffffffff1673ffffffffffffffffffffffffffffffffffffffff16815260200190815260200160002060006101000a81548160ff02191690831515021790555060005b600260003373ffffffffffffffffffffffffffffffffffffffff1673ffffffffffffffffffffffffffffffffffffffff168152602001908152602001600020805490508110156103e5578173ffffffffffffffffffffffffffffffffffffffff16600260003373ffffffffffffffffffffffffffffffffffffffff1673ffffffffffffffffffffffffffffffffffffffff168152602001908152602001600020828154811061031157610310611359565b5b9060005260206000200160000160009054906101000a900473ffffffffffffffffffffffffffffffffffffffff1673ffffffffffffffffffffffffffffffffffffffff16036103d2576000600260003373ffffffffffffffffffffffffffffffffffffffff1673ffffffffffffffffffffffffffffffffffffffff16815260200190815260200160002082815481106103ad576103ac611359565b5b9060005260206000200160000160146101000a81548160ff0219169083151502179055505b80806103dd906113b7565b91505061025f565b5050565b6060600260008373ffffffffffffffffffffffffffffffffffffffff1673ffffffffffffffffffffffffffffffffffffffff168152602001908152602001600020805480602002602001604051908101604052809291908181526020016000905b828210156104e9578382906000526020600020016040518060400160405290816000820160009054906101000a900473ffffffffffffffffffffffffffffffffffffffff1673ffffffffffffffffffffffffffffffffffffffff1673ffffffffffffffffffffffffffffffffffffffff1681526020016000820160149054906101000a900460ff1615151515815250508152602001906001019061044a565b505050509050919050565b60603373ffffffffffffffffffffffffffffffffffffffff168273ffffffffffffffffffffffffffffffffffffffff1614806105b65750600160008373ffffffffffffffffffffffffffffffffffffffff1673ffffffffffffffffffffffffffffffffffffffff16815260200190815260200160002060003373ffffffffffffffffffffffffffffffffffffffff1673ffffffffffffffffffffffffffffffffffffffff16815260200190815260200160002060009054906101000a900460ff165b6105f5576040517f08c379a00000000000000000000000000000000000000000000000000000000081526004016105ec9061145c565b60405180910390fd5b6000808373ffffffffffffffffffffffffffffffffffffffff1673ffffffffffffffffffffffffffffffffffffffff168152602001908152602001600020805480602002602001604051908101604052809291908181526020016000905b828210156106ff5783829060005260206000200180546106729061104d565b80601f016020809104026020016040519081016040528092919081815260200182805461069e9061104d565b80156106eb5780601f106106c0576101008083540402835291602001916106eb565b820191906000526020600020905b8154815290600101906020018083116106ce57829003601f168201915b505050505081526020019060010190610653565b505050509050919050565b60018060003373ffffffffffffffffffffffffffffffffffffffff1673ffffffffffffffffffffffffffffffffffffffff16815260200190815260200160002060008373ffffffffffffffffffffffffffffffffffffffff1673ffffffffffffffffffffffffffffffffffffffff16815260200190815260200160002060006101000a81548160ff021916908315150217905550600360003373ffffffffffffffffffffffffffffffffffffffff1673ffffffffffffffffffffffffffffffffffffffff16815260200190815260200160002060008273ffffffffffffffffffffffffffffffffffffffff1673ffffffffffffffffffffffffffffffffffffffff16815260200190815260200160002060009054906101000a900460ff16156109bc5760005b600260003373ffffffffffffffffffffffffffffffffffffffff1673ffffffffffffffffffffffffffffffffffffffff168152602001908152602001600020805490508110156109b6578173ffffffffffffffffffffffffffffffffffffffff16600260003373ffffffffffffffffffffffffffffffffffffffff1673ffffffffffffffffffffffffffffffffffffffff16815260200190815260200160002082815481106108e2576108e1611359565b5b9060005260206000200160000160009054906101000a900473ffffffffffffffffffffffffffffffffffffffff1673ffffffffffffffffffffffffffffffffffffffff16036109a3576001600260003373ffffffffffffffffffffffffffffffffffffffff1673ffffffffffffffffffffffffffffffffffffffff168152602001908152602001600020828154811061097e5761097d611359565b5b9060005260206000200160000160146101000a81548160ff0219169083151502179055505b80806109ae906113b7565b915050610830565b50610b4d565b600260003373ffffffffffffffffffffffffffffffffffffffff1673ffffffffffffffffffffffffffffffffffffffff16815260200190815260200160002060405180604001604052808373ffffffffffffffffffffffffffffffffffffffff168152602001600115158152509080600181540180825580915050600190039060005260206000200160009091909190915060008201518160000160006101000a81548173ffffffffffffffffffffffffffffffffffffffff021916908373ffffffffffffffffffffffffffffffffffffffff16021790555060208201518160000160146101000a81548160ff02191690831515021790555050506001600360003373ffffffffffffffffffffffffffffffffffffffff1673ffffffffffffffffffffffffffffffffffffffff16815260200190815260200160002060008373ffffffffffffffffffffffffffffffffffffffff1673ffffffffffffffffffffffffffffffffffffffff16815260200190815260200160002060006101000a81548160ff0219169083151502179055505b50565b6000604051905090565b600080fd5b600080fd5b600073ffffffffffffffffffffffffffffffffffffffff82169050919050565b6000610b8f82610b64565b9050919050565b610b9f81610b84565b8114610baa57600080fd5b50565b600081359050610bbc81610b96565b92915050565b600080fd5b600080fd5b6000601f19601f8301169050919050565b7f4e487b7100000000000000000000000000000000000000000000000000000000600052604160045260246000fd5b610c1582610bcc565b810181811067ffffffffffffffff82111715610c3457610c33610bdd565b5b80604052505050565b6000610c47610b50565b9050610c538282610c0c565b919050565b600067ffffffffffffffff821115610c7357610c72610bdd565b5b610c7c82610bcc565b9050602081019050919050565b82818337600083830152505050565b6000610cab610ca684610c58565b610c3d565b905082815260208101848484011115610cc757610cc6610bc7565b5b610cd2848285610c89565b509392505050565b600082601f830112610cef57610cee610bc2565b5b8135610cff848260208601610c98565b91505092915050565b60008060408385031215610d1f57610d1e610b5a565b5b6000610d2d85828601610bad565b925050602083013567ffffffffffffffff811115610d4e57610d4d610b5f565b5b610d5a85828601610cda565b9150509250929050565b600060208284031215610d7a57610d79610b5a565b5b6000610d8884828501610bad565b91505092915050565b600081519050919050565b600082825260208201905092915050565b6000819050602082019050919050565b610dc681610b84565b82525050565b60008115159050919050565b610de181610dcc565b82525050565b604082016000820151610dfd6000850182610dbd565b506020820151610e106020850182610dd8565b50505050565b6000610e228383610de7565b60408301905092915050565b6000602082019050919050565b6000610e4682610d91565b610e508185610d9c565b9350610e5b83610dad565b8060005b83811015610e8c578151610e738882610e16565b9750610e7e83610e2e565b925050600181019050610e5f565b5085935050505092915050565b60006020820190508181036000830152610eb38184610e3b565b905092915050565b600081519050919050565b600082825260208201905092915050565b6000819050602082019050919050565b600081519050919050565b600082825260208201905092915050565b60005b83811015610f21578082015181840152602081019050610f06565b60008484015250505050565b6000610f3882610ee7565b610f428185610ef2565b9350610f52818560208601610f03565b610f5b81610bcc565b840191505092915050565b6000610f728383610f2d565b905092915050565b6000602082019050919050565b6000610f9282610ebb565b610f9c8185610ec6565b935083602082028501610fae85610ed7565b8060005b85811015610fea5784840389528151610fcb8582610f66565b9450610fd683610f7a565b925060208a01995050600181019050610fb2565b50829750879550505050505092915050565b600060208201905081810360008301526110168184610f87565b905092915050565b7f4e487b7100000000000000000000000000000000000000000000000000000000600052602260045260246000fd5b6000600282049050600182168061106557607f821691505b6020821081036110785761107761101e565b5b50919050565b60008190508160005260206000209050919050565b60006020601f8301049050919050565b600082821b905092915050565b6000600883026110e07fffffffffffffffffffffffffffffffffffffffffffffffffffffffffffffffff826110a3565b6110ea86836110a3565b95508019841693508086168417925050509392505050565b6000819050919050565b6000819050919050565b600061113161112c61112784611102565b61110c565b611102565b9050919050565b6000819050919050565b61114b83611116565b61115f61115782611138565b8484546110b0565b825550505050565b600090565b611174611167565b61117f818484611142565b505050565b5b818110156111a35761119860008261116c565b600181019050611185565b5050565b601f8211156111e8576111b98161107e565b6111c284611093565b810160208510156111d1578190505b6111e56111dd85611093565b830182611184565b50505b505050565b600082821c905092915050565b600061120b600019846008026111ed565b1980831691505092915050565b600061122483836111fa565b9150826002028217905092915050565b61123d82610ee7565b67ffffffffffffffff81111561125657611255610bdd565b5b611260825461104d565b61126b8282856111a7565b600060209050601f83116001811461129e576000841561128c578287015190505b6112968582611218565b8655506112fe565b601f1984166112ac8661107e565b60005b828110156112d4578489015182556001820191506020850194506020810190506112af565b868310156112f157848901516112ed601f8916826111fa565b8355505b6001600288020188555050505b505050505050565b600081905092915050565b600061131c82610ee7565b6113268185611306565b9350611336818560208601610f03565b80840191505092915050565b600061134e8284611311565b915081905092915050565b7f4e487b7100000000000000000000000000000000000000000000000000000000600052603260045260246000fd5b7f4e487b7100000000000000000000000000000000000000000000000000000000600052601160045260246000fd5b60006113c282611102565b91507fffffffffffffffffffffffffffffffffffffffffffffffffffffffffffffffff82036113f4576113f3611388565b5b600182019050919050565b600082825260208201905092915050565b7f596f7520646f6e27742068617665206163636573730000000000000000000000600082015250565b60006114466015836113ff565b915061145182611410565b602082019050919050565b6000602082019050818103600083015261147581611439565b905091905056fea2646970667358221220bd2deeb9c244f87eb28fccc394ea0585364da5e9881a86bf0265910a050b498364736f6c63430008110033",
  "devdoc": {
    "kind": "dev",
    "methods": {},
    "version": 1
  },
  "userdoc": {
    "kind": "user",
    "methods": {},
    "version": 1
  },
  "storageLayout": {
    "storage": [
      {
        "astId": 11,
        "contract": "contracts/Upload.sol:Upload",
        "label": "value",
        "offset": 0,
        "slot": "0",
        "type": "t_mapping(t_address,t_array(t_string_storage)dyn_storage)"
      },
      {
        "astId": 17,
        "contract": "contracts/Upload.sol:Upload",
        "label": "ownership",
        "offset": 0,
        "slot": "1",
        "type": "t_mapping(t_address,t_mapping(t_address,t_bool))"
      },
      {
        "astId": 23,
        "contract": "contracts/Upload.sol:Upload",
        "label": "accessList",
        "offset": 0,
        "slot": "2",
        "type": "t_mapping(t_address,t_array(t_struct(Access)6_storage)dyn_storage)"
      },
      {
        "astId": 29,
        "contract": "contracts/Upload.sol:Upload",
        "label": "previousData",
        "offset": 0,
        "slot": "3",
        "type": "t_mapping(t_address,t_mapping(t_address,t_bool))"
      }
    ],
    "types": {
      "t_address": {
        "encoding": "inplace",
        "label": "address",
        "numberOfBytes": "20"
      },
      "t_array(t_string_storage)dyn_storage": {
        "base": "t_string_storage",
        "encoding": "dynamic_array",
        "label": "string[]",
        "numberOfBytes": "32"
      },
      "t_array(t_struct(Access)6_storage)dyn_storage": {
        "base": "t_struct(Access)6_storage",
        "encoding": "dynamic_array",
        "label": "struct Upload.Access[]",
        "numberOfBytes": "32"
      },
      "t_bool": {
        "encoding": "inplace",
        "label": "bool",
        "numberOfBytes": "1"
      },
      "t_mapping(t_address,t_array(t_string_storage)dyn_storage)": {
        "encoding": "mapping",
        "key": "t_address",
        "label": "mapping(address => string[])",
        "numberOfBytes": "32",
        "value": "t_array(t_string_storage)dyn_storage"
      },
      "t_mapping(t_address,t_array(t_struct(Access)6_storage)dyn_storage)": {
        "encoding": "mapping",
        "key": "t_address",
        "label": "mapping(address => struct Upload.Access[])",
        "numberOfBytes": "32",
        "value": "t_array(t_struct(Access)6_storage)dyn_storage"
      },
      "t_mapping(t_address,t_bool)": {
        "encoding": "mapping",
        "key": "t_address",
        "label": "mapping(address => bool)",
        "numberOfBytes": "32",
        "value": "t_bool"
      },
      "t_mapping(t_address,t_mapping(t_address,t_bool))": {
        "encoding": "mapping",
        "key": "t_address",
        "label": "mapping(address => mapping(address => bool))",
        "numberOfBytes": "32",
        "value": "t_mapping(t_address,t_bool)"
      },
      "t_string_storage": {
        "encoding": "bytes",
        "label": "string",
        "numberOfBytes": "32"
      },
      "t_struct(Access)6_storage": {
        "encoding": "inplace",
        "label": "struct Upload.Access",
        "members": [
          {
            "astId": 3,
            "contract": "contracts/Upload.sol:Upload",
            "label": "user",
            "offset": 0,
            "slot": "0",
            "type": "t_address"
          },
          {
            "astId": 5,
            "contract": "contracts/Upload.sol:Upload",
            "label": "access",
            "offset": 20,
            "slot": "0",
            "type": "t_bool"
          }
        ],
        "numberOfBytes": "32"
      }
    }
  }
}